:020000000528D1
:08000800F428E0200A201F206B
:100010006B2007284430D4204430D4205330D420DF
:100020002030D4205630D4203130D4202E30D4206B
:100030003230D4200D30D4200A30D42008000D30C6
:10004000D4200A30D4202A30D420F5017030840026
:10005000DA20F6000D3C031D2E2808007508053C2B
:10006000031D42287608083C031D3F280830D42091
:100070002030D4200830D420F5038403282807300A
:10008000D42028287608083C031D5528F5080319B4
:1000900052280830D4202030D4200830D420F50352
:1000A000840328280730D420282830307602031C07
:1000B00064287608393C031C642876088000840A8A
:1000C000F50A7608D42028287608DF39D420800065
:1000D000840AF50A28287008463C031D71288A20E6
:1000E00008007008523C031D7728C32008007008E0
:1000F000543C031D7D28C72008000D30D4200A3051
:10010000D4203F30D420D420D4200D30D4200A3045
:10011000D42008007508053C031995280D30D4201B
:100120000A30D4203E30D42008007108CB20F900DA
:10013000F90E7208CB20F9047308CB20F800F80EF2
:100140007408CB20F8040830F600F90D031CAA2827
:100150000515AB280511851400008510F603031D55
:10016000A5280830F600F80D031CB8280515B92895
:100170000511851400008510F603031DB3288511B1
:100180000000851508008511000085150800051080
:10019000000005140800F600393C7608031CD2283C
:1001A000D03E0800C93E08008316981CD52883124B
:1001B000990008008C1EDA281A08080000000800C0
:1001C00090309800243083169800403099008614AF
:1001D0000615051085100511851183121F149F1433
:0C01E0001F15051485150800000009001B
:02400E00EA3F87
:00000001FF
